:02180100145978
:0218030016E8E5
:02180500066C6F
:101727004552524F520025302E3266002057524FF5
:101737004E4720494E5055540020564152285829AB
:101747003A00204156472858293A002053554D283A
:0F17570058293A002053554D28585E32293A0040
:0500030042002B00008B
:1016A1007590FEE59054F0FF64F06005EF440EFF85
:1016B100227590FDE59054F0FF64F06005EF440D54
:1016C100FF227590FBE59054F0FF64F06005EF4454
:1016D1000BFF227590F7E59054F0FF64F06005EF81
:0616E1004407FF227FFF19
:0116E70022E0
:1013970090004A74FFF0EF1205F1144D7714457B66
:1013A700143D7D14357E142DB71425BB141DBD14B3
:1013B70015BE140DD71405DB13FDDD13F5DE13ED94
:1013C700E713E5EB13DDED13D5EE000014539000A2
:1013D7004A7430F0807690004A7431F0806E900045
:1013E7004A7432F0806690004A7433F0805E900051
:1013F7004A7434F0805690004A7435F0804E90005D
:101407004A7436F0804690004A7437F0803E900068
:101417004A7438F0803690004A7439F0802E900074
:101427004A7441F0802690004A7442F0801E900072
:101437004A7443F0801690004A7444F0800E90007E
:101447004A7445F0800690004A7446F090004AE0DE
:01145700FF95
:011458002271
:10150E00EF1205F1154630154A31154F3215543389
:10151E00155934155E35156336156837156D381542
:10152E007239157741157F42158743158F441597EC
:10153E0045159F46000015A7E4FEFF227E007F01A1
:10154E00227E007F02227E007F03227E007F042205
:10155E007E007F05227E007F06227E007F07227E90
:10156E00007F08227E007F09221217B17E007F0ABB
:10157E00221217B17E007F0B221217B17E007F0C54
:10158E00221217B17E007F0D221217B17E007F0E40
:10159E00221217B17E007F0F221217B17BFF7A172E
:0A15AE0079271216447E007F1022F8
:0F17E30075A0FFC2B7D2B6E5A020E7FBAFA022EA
:0417B100E4FD7F01D3
:1017B500AE07ED60031217E3C2B7D2B6AF068FA02E
:0917C500C2B600000000D2B622F9
:0F17F200D2B7D2B68FA0C2B600000000D2B62286
:0B16440090004BEBF0A3EAF0A3E9F0EC
:10164F00E4A3F0A3F090004BE0FBA3E0FAA3E0F9D2
:10165F001217CE90004EE0FCA3E0FDC39FEE648016
:10166F00F8EC648098502690004BE0FBA3E0FAA3BF
:10167F00E0F98D828C831204FFFF1217F290004F56
:10168F00E004F070C090004EE004F080B80000005D
:01169F00004A
:0116A0002227
:10178D0090004E74FFF0A37417F0A3742DF0A31204
:10179D0005947B017A007940120B957B017A0079D3
:0417AD00400216449C
:0812960090003BE0FEA3E0FF25
:08129E0090004BEEF0A3EFF00D
:1012A6007B017A00900051EEF0A3EFF0C3EE64806C
:1012B6009480501C90004BE0FEA3E0FF7CFF7DFF76
:1012C60012053E90004BEEF0A3EFF07F2D1217F2C1
:1012D600900051E0FEA3E0FF7C007D0A12055090CD
:1012E6000051EEF0A3EFF04E60070BBB00010A8041
:1012F600DFD3EB9400EA6480948050030213969047
:10130600004FE4F0A304F0E490004DF0A3F0EB24CA
:10131600FFFFEA34FFFEC390004EE09FEE6480F8C4
:1013260090004DE0648098502790004FE0FEA3E0C7
:10133600FF7C007D0A12053E90004FEEF0A3EFF011
:1013460090004EE004F070C690004DE004F080BEC0
:1013560090004FE0FCA3E0FD90004BE0FEA3E0FF11
:10136600120550EF2430FF1217F290004BE0FEA357
:10137600E0FF90004FE0FCA3E0FD12055090004B0B
:10138600ECF0A3EDF0EB1B60030212F71A0212F762
:011396002234
:1016E8007DFF1216A1AD07EDF4600C90002BE4F01D
:1016F800A304F0AE0580EBEDB4FFE790002BE0709B
:1017080004A3E0640170DB90002BF0A3F0AF061295
:0F1718001397900028EFF090003D7401F080C30C
:10066C0090003DE060FAE4FBFA7D0A7F801210C531
:10067C00900028E0FF12150E900039EEF0A3EFF079
:10068C00900031E07004A3E06401700DFD7F011255
:10069C0017B5E4900031F0A3F0C390003AE0940A4F
:1006AC00900039E0648094805036900028E0FF126E
:1006BC0017F2E4FBFA7D0A7F801210C5900033E03C
:1006CC00FEA3E0FF7C007D0A12053E90003AE02F6D
:1006DC00FF900039E03E900033F0A3EFF0020B28BE
:1006EC00D390003AE0940B900039E0648094804001
:1006FC0016900029E07002A3E0700C7BFF7A17794A
:10070C0033121644020B28900039E0FEA3E0FFEEF2
:10071C006003020B28EF24F560541470030207D811
:10072C00147003020983147003020A20147003026C
:10073C000A9C24056003020B28900033E0FCA3E024
:10074C00FD90002AE025E0FF900029E033FE7400C4
:10075C002FF58274003EF583ECF0A3EDF090002AA7
:10076C00E004F07006900029E004F0E48055E49079
:10077C00003EF0A3F0900029E0FEA3E0FF90003EC5
:10078C00E0FCA3E0FDC39FEE6480F8EC648098501D
:10079C0025ED25E0FFEC33FE74002FF58274003E4E
:1007AC00F583E4F0A3F090003FE004F070C79000F4
:1007BC003EE004F080BFE4900029F0A3F090003BF1
:1007CC00F0A3F0900033F0A3F0020B28E490003E6D
:1007DC00F0A3F0900029E0FEA3E0FF90003EE0FCC7
:1007EC00A3E0FDC39FEE6480F8EC6480985032ED7A
:1007FC0025E0FFEC33FE74002FF58274003EF58388
:10080C00E0FEA3E0FF90003CE02FF090003BE03EC8
:10081C00F090003FE004F070BA90003EE004F080ED
:10082C00B290003EE0FCA3E0FDEC1202B1C004C0AB
:10083C0005C006C00790003BE0FCA3E0FDEC1202F3
:10084C00B1D003D002D001D00012020F90003512AB
:10085C00059490002D1205A000000000E490003ECD
:10086C00F0A3F0900029E0FEA3E0FFC390003FE06E
:10087C009FEE6480F890003EE0648098400302098B
:10088C005590002DE0F8A3E0F9A3E0FAA3E0FBC03B
:10089C0000C001C002C00390003FE025E0FF9000C3
:1008AC003EE033FE74002FF58274003EF583E0FCCD
:1008BC00A3E0FDEC1202B1900035E0F8A3E0F9A33F
:1008CC00E0FAA3E0FB120011C004C005C006C0078B
:1008DC0090003FE025E0FF90003EE033FE74002FD7
:1008EC00F58274003EF583E0FCA3E0FDEC1202B14E
:1008FC00900035E0F8A3E0F9A3E0FAA3E0FB1200C6
:10090C0011D003D002D001D000120106D003D002C6
:10091C00D001D00012001590002D12059490003FCC
:10092C00E025E0FF90003EE033FE74002FF582746A
:10093C00003EF583E4F0A3F090003FE004F0700675
:10094C0090003EE004F002086F7BFF7A17794012AA
:10095C00164490003EE0FCA3E0FDEC1202B1A804AA
:10096C00A905AA06AB0790002DE0FCA3E0FDA3E0CF
:10097C00FEA3E0FF020A17E490003EF0A3F0900003
:10098C0029E0FEA3E0FF90003EE0FCA3E0FDC39F46
:10099C00EE6480F8EC6480985040ED25E0FFEC3379
:1009AC00FE74002FF58274003EF583E0FCA3E0FD9D
:1009BC0090003CE02DF090003BE03CF074002FF5F3
:1009CC008274003EF583E4F0A3F090003FE004F065
:1009DC0070AC90003EE004F080A47BFF7A1779495C
:1009EC0012164490003EE0FCA3E0FDEC1202B1C0F4
:1009FC0004C005C006C00790003BE0FCA3E0FDEC82
:100A0C001202B1D003D002D001D00012020F121783
:100A1C008D020B14E490003EF0A3F0900029E0FE50
:100A2C00A3E0FF90003EE0FCA3E0FDC39FEE6480DA
:100A3C00F8EC6480985040ED25E0FFEC33FE740038
:100A4C002FF58274003EF583E0FCA3E0FD90003CA2
:100A5C00E02DF090003BE03CF074002FF582740028
:100A6C003EF583E4F0A3F090003FE004F070AC900E
:100A7C00003EE004F080A47BFF7A177952121644F2
:100A8C00121296E4FBFA7D0A7F801210C5020B1439
:100A9C00E490003EF0A3F0900029E0FEA3E0FFC339
:100AAC0090003FE09FEE6480F890003EE0648098F8
:100ABC00504AA3E025E0FB90003EE033FA74002B93
:100ACC00F58274003AF583E0FCA3E0FDFFAE04125E
:100ADC00053E90003CE02FF090003BE03EF07400AF
:100AEC002BF58274003AF583E4F0A3F090003FE01C
:100AFC0004F070A390003EE004F0809B7BFF7A171B
:100B0C00795B121644121296E4900029F0A3F0902F
:100B1C00003BF0A3F0900031F0A304F0E490003D12
:040B2C00F002066C61
:10145900E4F5807590F0F5A0F5B090003DF09000AE
:1014690029F0A3F090003BF0A3F0900031F0A3F035
:10147900A3F0A3F090003EF0A3F090003EE0FEA39D
:10148900E0FFC39414EE648094805025EF25E0FFBB
:10149900EE33FE74002FF58274003EF583E4F0A369
:1014A900F090003FE004F070D190003EE004F0803D
:1014B900C9E4FD7F381217B5E4FBFA0D7F801210DD
:1014C900C5E4FD7F0F1217B5E4FBFA0D7F801210FA
:1014D900C5E4FD7F061217B5E4FBFA0D7F801210F3
:1014E900C51217B1E4FBFA0D7F801210C5E4FD7F28
:1014F900021217B57F01120FB37F02120FB3E4FF77
:0515090012103C80AC53
:100FB300EFD3940240037FFF2274142F2FF8E6200F
:100FC300E5F4C2AFE64430F6D2AFAE0CEEC39F50A9
:100FD300210E74192EF8E6F908E618BE020274FF12
:100FE300FDED69600909E71919F7090980F3161678
:100FF30080DAEED39F400405810581EED39F402222
:1010030074192EF808E6F9EEB50C02A98118060644
:10101300E6FDED6960091919E70909F71980F31E5F
:1010230080D9EF2419F8E604F8EF2F049018019300
:09103300F608EF2F93F67F00226E
:10103C00EFD3940240037FFF22EF232414F8E63011
:10104C00E5F4C2AFE6548CF6D2AFE50CB5070A74E2
:10105C00192FF8E6F58102119F502E741A2FF8E61D
:10106C00BF020274FFFD18E6F974192FF8FBE6FCB9
:10107C00E96C6008A805E7F61D1980F4A803A6051D
:10108C001FE50CB507E37F0022741A2FF8E6FD1854
:10109C0086010F74192FF8A601088604E50CB50714
:1010AC0002AC81ED6C60080D09A805E6F780F4E54B
:0910BC000CB507DE89817F0022DA
:1010C5008FF0E4FFFEE50C232413F8C2A930F70DD9
:1010D5007F08E6600B2DF660325030800730F10650
:1010E500EDF660277E020830F010C2AFE610E72566
:1010F5000E30E20CD2AF7F048014C2AFE610E715C4
:1011050054EC4EF6D2AFD2A902119F7F0808EF44E6
:0F11150083F4C2AF56C6D2AFD2A954804FFF2287
:03000B00021129B6
:10112400C2AF80FE3212112885D00B75D008AAE018
:10113400C28CE58A24F7F58AE58C34D8F58CD28CF8
:10114400EC241AF8E6BC020274FFC39581B41400BF
:1011540040CE7903781316E608700BC2AFE630E18F
:10116400034418F6D2AF08D9EDEA8BD03009012236
:10117400D50DFCC0E0C0D0C0F0C083C082C000C0A8
:1011840001C002C003C004C005C006C007E50C23AB
:101194002414F87440C2AF46F6D2AFD209E50CFF6E
:1011A400232414F80F0808BF03047F007814E630E2
:1011B400E4F200E50CC39F5020050C7419250CF8CB
:1011C400E6FDA68108E6AE0CBE020274FFCDF8E887
:1011D4006D60E008E6C0E080F6E50CD39F4027E5AB
:1011E4000C241AF8E6AE0CBE020274FFFD18E6CD1C
:1011F400F8E5816D6006D0E0F61880F5E50C241959
:10120400C8F6150C80D3750D05E50C232414F87F5E
:1012140004C2AFE610E61E30E00310E20C7F00309B
:05122400E10730E304C6
:101229007F0854F4547CC6D2AF54804207C20922C5
:10123900F6D2AFD007D006D005D004D003D002D063
:1012490001D000D082D083D0F0D0D0D0E0C2092222
:101259007819A68174026006FF0876FFDFFB7F0319
:10126900E47813F608F608DFFA7814763090180156
:10127900740193C0E0E493C0E0750D0543890175DD
:0D1289008AF0758CD8D28CD2AFD2A9220287
:10000E0002031FE86480F8E933E83360110460F0FE
:10001E00ED33EC337009E8FCE9FDEAFEEBFF220458
:10002E0060DED3EB9FEA9EE99DE8C2E78CF0C2F753
:10003E0095F0400CE8CCF8E9CDF9EACEFAEBCFFB1F
:10004E001202EA85D0F05804700320D5B3E804708C
:10005E00075002B2D502032992D5EC0460F7E4CC26
:10006E00C0E0C398F8603B94186008400DD0E0FBE8
:10007E00020301E4FBFAC9FC8028E830E406E4C977
:10008E00FBE4CAFCE830E305E4C9CACBFCE854073C
:10009E006010F8C3E913F9EA13FAEB13FBEC13FC47
:1000AE00D8F130F52FC3E49CFCEF9BFFEE9AFEEDEA
:1000BE0099FDD0E0FBEF4E4D4C701222DB03020394
:1000CE0026EC2CFCEF33FFEE33FEED33FDED30E787
:1000DE00EB020301EF2BFFEE3AFEED39FDD0E0FB14
:1000EE0050130BBB0003020329ED13FDEE13FEEFBD
:0800FE0013FFEC13FC020301E7
:10010600EC4D6011E8497017ED33EC3304600DE4F3
:10011600FCFFFEFD22E933E8330470F802031F12E8
:1001260002EA58046009E4CC2481500628500902EA
:100136000329284003020326C0E0EB4A7044B98035
:1001460006D0E0FB020315EF4E701CBD8008EBFFE6
:10015600EAFEE9FD80EBE98DF0A4FEE5F00201EF91
:10016600E9CDF9EAFEEBFFEF89F0A4FCE5F0CE89D4
:10017600F0A42EFFE435F0CD89F0A42DFEE435F091
:100186008067EF4E7005BD80D780C3EF8BF0A4ACBF
:10019600F0EE8BF0A42CFCE435F0F8EF8AF0A42CFA
:1001A600E5F038FCE433CB8DF0A42CFCE5F03BF80D
:1001B600EE8AF0A42CFCE5F038F8E433CF89F0A4FD
:1001C6002CFCE5F038CF3400CE89F0A42FFFE5F003
:1001D6003EFEE433C98DF0A42EFEE5F039CD8AF05B
:1001E600A42FFFE5F03EFEE43DFD33D0E0FB5007D3
:1001F6000BBB000F020329EC2CFCEF33FFEE33FEA2
:06020600ED33FD020301CF
:10020C00020329EC5D046005E85904700302031F26
:10021C001202EA580460F6EC4860F2EC7004FDFE41
:10022C00FF22C860DB2481C85009C39860025006C5
:10023C000203269850CAF582E9294B4A7005AB8215
:10024C0002031575F0007C1A7880C3EF9BEE9AEDD3
:10025C0099400DC3EF9BFFEE9AFEED99FDE842F03D
:10026C00DC23ACF0D0E0FFD0E0FED0E0FDAB822090
:10027C00E7101BEB60BAEC2CFCEF33FFEE33FEED1A
:10028C0033FD020301E803F830E705C0F075F00018
:10029C00EF2FFFEE33FEED33FD40B830E7C280AAFE
:1002AC0075F020800E75F010800575F0087D007ECD
:1002BC00007F003392D530D503120586EC33401005
:1002CC00EF33FFEE33FEED33FDEC33FCD5F0ED22D6
:0E02DC00E5F0247EA2D513CC92E7CDCEFF2212
:100B3000E50E244EF582E43400F583E0050E2290A4
:100B4000004B30070390004EE475F0011205D1020E
:100B500004E62000E97F2ED2008018EF540F249085
:100B6000D43440D4FF30040BEF24BFB41A00500338
:100B70002461FFE50F6002150F0512E512700205F2
:100B80001130070E90004BE475F0011205D1EF0211
:100B9000052C0217667403D2078003E4C207F50E22
:100BA00090004B1205E8E4F50FF511F512E50F6022
:100BB000077F20120B7380F57510FFC201C200C2BF
:100BC00002C203C205C206C208120B3FFF700D30FD
:100BD00007057F00120B84AF12AE1122B4255FC24D
:100BE000D5C204120B3FFF24D0B40A00501A75F08E
:100BF0000A780F30D50508B6FF0106C6A426F620F0
:100C0000D5047002D20380D924CFB41A00EF500467
:100C1000C2E5D204020E76D20180C6D20080C0D2D4
:100C20000280BCD2D580BAD20580B47F20120B736B
:100C30002002077401B50F0040F1120B30FF120BB8
:100C400073020BADD208D2068095120B30FB120B4B
:100C500030FA120B30F94A4B700679747A0F7BFF29
:100C600020022EE50F602A7E008E8275830012041A
:100C7000FF60060EEE651070F0C2D5EBC0E0EAC072
:100C8000E0E9C0E0EE120ED7D0E0F9D0E0FAD0E013
:100C9000FB1204E6FF60AAEBC0E0EAC0E0E9C0E0B6
:100CA000120B73D0E02401F9D0E03400FAD0E0FB5D
:100CB000E5100460DCD510D98087D20280A2120E24
:100CC000B960F7E510700104120334A910600DE556
:100CD00010600914F510120F61EF60F3EA30E702BB
:100CE000F404C3995079EAF425100430E701E404D0
:100CF000F510800D120EB960C1EA0510251012031F
:100D000034EA90007AF030E701E4251004D51004AD
:100D100020050114120ED7E4C0E0120F6190007A92
:100D2000E0601320E70714F0120B5B802204F0D080
:100D3000E014C0E07F00120B5BE5106007120B525D
:100D40001510800B300503120B52D0E0020BADD012
:100D5000E00480C4120EB9609EE5100412033490C2
:100D6000007AEAF0E5102005026001042404120E66
:010D7000D7AB
:100D710074FF04C0E0120F61120B5BE51020050245
:100D81006003120B52D0E0B510E87F45120B65905D
:100D9100007AE07F2B30E7047F2DF404C0E0120BD2
:100DA10073D0E075F00A84C0F0120B5CD0E0120B36
:100DB1005C020BAD791080027908C206C208800876
:100DC100D2D5790A8004790AC2D5E510047002F5FA
:100DD10010E4FAFDFEFF120B30FC7B082001131218
:100DE1000B30FD7B1030000A120B30FE120B30FF6E
:100DF1007B20EC3382D592D55013C3E43000069F9B
:100E0100FFE49EFEE42001039DFDE49CFCE4CBF89D
:100E1100C201EC700CCFCECDCCE824F8F870F38091
:100E210017C3EF33FFEE33FEED33FDEC33FCEB3351
:100E3100FB994002FB0FD8E9EB300105F8D0E0C483
:100E410048B201C0E00AEC4D4E4F78207B0070C2E1
:100E5100EAB5100040BCC0E0120ED9D0F0D0E020BD
:100E61000104C4C0E0C4B201C0F0120B5CD0F0D5E3
:100E7100F0EB020BAD1205F10C4A530DB5580C1BEA
:100E81004C0C17420DB94F0DC1440DC1490C3043F3
:100E91000DC7550CF4460D54450CBE470F94500C2C
:100EA1001F2D0C232E0C462B0C27230C44200F7DC9
:100EB1002A0BDF4800000C3EE510B4FF0375100655
:100EC100120B30FC120B30FD120B30FE120B30FFF7
:100ED100900073020371790AA2D520031430050929
:100EE100B910020404B9080104A2D5200602500178
:100EF100042002689202B50F005034C0E07F203018
:100F010003197F30A20272067205500F120F30C210
:100F110002C206C205C2087F30800F300503E9C056
:100F2100E0120B73300503D0E0F9D0E0B50FCC30FF
:100F310005177F30B9100C120B737F583004077FEF
:100F4100788003B90803120B733002057F2D020B61
:100F5100737F202008F87F2B2006F322920280CF96
:100F61007F00B40700500B2473F582E43400F5834D
:100F7100E0FF22286E756C6C2900D201120B303013
:100F810001F8C201780F30D50108F6020BDF2D50B0
:100F9100434958120B302403B405004001E4900F7B
:100FA1008F93120B64743A120B64D203750F04020F
:020FB1000DB57C
:1002EA00E9D2E7C933E833F892D5EDD2E7CD33EC5A
:0702FA0033FC5002B2D522D3
:10030100EC30E7100FBF000C0EBE00080DBD00045D
:100311000BEB6014A2D5EB13FCED92E7FD2274FF09
:10032100FCFDFEFF22E480F8A2D574FF13FC7D8062
:03033100E480EF76
:10033400F920E73624F950037907E4F42402FBE5B5
:1003440082158270021583DBF6E024FB501BE96002
:1003540014E4F0E582158270021583E004F0B40A17
:0D03640008E4F0D9EE7401F00A22C2D5229F
:10037100ED33EC3392D5FA602AB4FF33EDC2E77B5B
:10038100FF60067A037996E4227A03799F20D504E7
:100391007A03799A224E614E002B494E46002D492F
:1003A1004E4600E47A08F0A3DAFC7B00740722C011
:1003B10083C082ECC0E0EDC0E0EEC0E0EFC0E0EA57
:1003C10075F010A4CAABF075F04DA42BFBE435F029
:1003D100FCEA2410FAEB34C5FBEC34D9FCEDC2E79E
:1003E100FF75F056A4F42411C5F0F434C58FF0A4C0
:1003F1002AE5F03BE43CF020E7141204A6D0E0FF2C
:10040100D0E0FED0E0FDD0E0FC12020F8014F40435
:100411001204A6D0E0FFD0E0FED0E0FDD0E0FC1257
:100421000106D082D083E0FAEDD2E7CD33EC33245C
:1004310082FBE4C3CF33CFCE33CECD33CD33DBF329
:100441007B0775F00A846004F0A31B0AE5F0F0A3B2
:100451008FF0740AA4FFACF08EF0740AA42CFEACE9
:10046100F050010C8DF0740AA42CFDE435F0F0A3DA
:05047100DBDE74072230
:100476003F8000004120000042C80000447A00008E
:10048600461C400047C35000497424004B18968010
:100496004CBEBC205A0E1BCA6753C21C749DC5AE07
:1004A600FB60065407601C23231204D4EB54386007
:1004B600091204C01204CF120106ECF8EDF9EEFAA7
:1004C600EFCB22EB1204CF80F1543803241C9004A6
:1004D60076FE93FC0EEE93FD0EEE930ECE93FF2268
:030000000215B82E
:0C15B800787FE4F6D8FD7581210215FF54
:1004E600BB010689828A83E0225002E722BBFE0214
:0904F600E32289828A83E4932247
:1004FF00BB010CE58229F582E5833AF583E02250B2
:10050F0006E92582F8E622BBFE06E92582F8E222FB
:0D051F00E58229F582E5833AF583E4932215
:10052C00BB010689828A83F0225002F722BBFE01AE
:02053C00F322A8
:10053E00EF8DF0A4A8F0CF8CF0A428CE8DF0A42ED1
:02054E00FE228B
:10055000C2D5EC30E709B2D5E4C39DFDE49CFCEEC6
:1005600030E715B2D5E4C39FFFE49EFE120617C321
:10057000E49DFDE49CFC800312061730D507C3E41C
:060580009FFFE49EFE2235
:0E058600C3E49FFFE49EFEE49DFDE49CFC2286
:0C059400ECF0A3EDF0A3EEF0A3EFF022DA
:1005A000A8828583F0D083D0821205B71205B712D6
:1005B00005B71205B7E473E493A3C583C5F0C583FB
:1005C000C8C582C8F0A3C583C5F0C583C8C582C8A5
:0105D0002208
:1005D100F8E0FBA3A3E0F925F0F0E58215827002B3
:0705E1001583E0FA38F02257
:0905E800EBF0A3EAF0A3E9F02214
:1005F100D083D082F8E4937012740193700DA3A399
:1006010093F8740193F5828883E4737402936860AC
:06061100EFA3A3A380DFAC
:10176600EFB40A07740D121771740A309811A8990C
:10177600B8130CC2983098FDA899C298B811F630E3
:0717860099FDC299F59922BB
:1017CE00E4FFFE1204E6600C0FEF70010E09E970E3
:0517DE00F20A80EF2279
:1015C400021259E493A3F8E493A34003F68001F2D2
:1015D40008DFF48029E493A3F85407240CC8C33328
:1015E400C4540F4420C8834004F456800146F6DFF7
:1015F400E4800B0102040810204080900003E47E84
:10160400019360BCA3FF543F30E509541FFEE493EB
:10161400A360010ECF54C025E060A840B8E493A3B2
:10162400FAE493A3F8E493A3C8C582C8CAC583CADD
:10163400F0A3C8C582C8CAC583CADFE9DEE780BE95
:0100080000F7
:10061700BC000BBE0029EF8DF084FFADF022E4CCC7
:10062700F875F008EF2FFFEE33FEEC33FCEE9DEC90
:10063700984005FCEE9DFE0FD5F0E9E4CEFD22EDD6
:10064700F8F5F0EE8420D21CFEADF075F008EF2F20
:10065700FFED33FD4007985006D5F0F222C398FD11
:050667000FD5F0EA22AE
:00000001FF
